:020000040000FA
:0600000031EF00F01200D8
:0A00060001009E0500001204000036
:0400100002000000EA
:0C001400D9CFE6FFE1CFD9FF0F0E951603
:100020008316FE0EDB508009F00B83128C948C92A9
:1000300042EC00F08C8042EC00F08C900F0E8316A6
:10004000FE0EDB38F00BF00B831242EC00F08C80DC
:1000500042EC00F08C90F00E9512E552E7CFD9FFFC
:0200600012008C
:0E00620013EE81F023EE81F0F86A019C16EC9B
:0E00700001F03FEC00F098EC00F0FBD712001E
:02007E0012006E
:04008000A9EF02F0F2
:0C00840000000000000000000000000070
:100090000000000000000000000000000000000060
:1000A00000000000000000001200960EE66EAFECAB
:1000B00002F0E5521200050EE66EAFEC02F0E552DA
:1000C0001200280EE66EAFEC00F0E55268EC02F08C
:1000D0000009FCE1E66A0AEC00F0E552060EE66E65
:1000E000D9EC01F0E55268EC02F00009FCE10F0EDA
:1000F000E66ED9EC01F0E55212000401126B136BAD
:10010000060ED8801255000E135511E3A9EC02F02B
:10011000E66E0B0E04011225E96E040E1321EA6E41
:10012000E552E750EF6E122B000E1323E9D71200B1
:10013000836A956A9AEC02F0E0DFC3DF68EC02F0B4
:100140000009FCE10B0EE66E040EE66EFFEC01F01A
:0E015000E552E55268EC02F00009FCE1FFD731
:02015E00D9CFF7
:10016000E6FFE1CFD9FF0F0E831695169594959271
:1001700095908C948C928C9055EC00F0300EE66E3D
:10018000D9EC01F0E552050EE66E83EC02F0E55283
:10019000300EE66ED9EC01F0E552010EE66E83EC0E
:1001A00002F0E552320EE66ED9EC01F0E55268EC51
:1001B00002F00009FCE168EC02F00009FCE1FE0E2F
:1001C000DBCFE6FFD9EC01F0E55268EC02F0000964
:1001D000FCE1080EE66ED9EC01F0E55268EC02F0A5
:1001E0000009FCE10F0EE66ED9EC01F0E55268EC77
:1001F00002F00009FCE1010EE66ED9EC01F0E552D7
:1002000068EC02F00009FCE1040EE66ED9EC01F0A6
:10021000E55268EC02F00009FCE1800EE66E0AECA3
:0C02200000F0E552E552E7CFD9FF1200D4
:04022C00060EF66E56
:10023000000EF76E000EF86E04010900F550066F0F
:100240000900F550076F03E1066701D03DD00900B2
:10025000F550016F0900F550026F0900F550036F6A
:1002600009000900F550E96E0900F550EA6E090031
:1002700009000900F550046F0900F550056F0900E9
:100280000900F6CF08F4F7CF09F4F8CF0AF401C457
:10029000F6FF02C4F7FF03C4F8FF0401045302E1B0
:1002A000055307E00900F550EE6E0407F8E2050774
:1002B000F9D708C4F6FF09C4F7FF0AC4F8FF040120
:0A02C0000607000E075BBFD712000F
:0602CA00D9CFE6FFE1CFF1
:1002D000D9FF0F0E95168316FE0EDB504009F00B6A
:1002E00083128C948C9242EC00F08C8042EC00F0F3
:1002F0008C900F0E8316FE0EDB38F00BF00B831282
:1003000042EC00F08C8042EC00F08C90F00E9512E4
:08031000E552E7CFD9FF12000E
:08031800D9CFE6FFE1CFD9FFC8
:10032000FD0EDBCFF6FFFE0EDBCFF7FF0800F5502A
:1003300016E068EC02F00009FCE1FD0EDBCFF6FFF1
:10034000FE0EDBCFF7FF0800F550E66EB3EC01F0D0
:10035000E552FD0EDB2AFE0EE3E3DB2AE1D7E55290
:06036000E7CFD9FF1200F7
:0A036600D9CFE6FFE1CFD9FF0F0E5B
:1003700095168316FE0EDB50F00B83128C828C9444
:1003800042EC00F08C8042EC00F08C900F0E831653
:10039000FE0EDB38F00BF00B831242EC00F08C8089
:1003A00042EC00F08C90F00E9512E552E7CFD9FFA9
:0203B000120039
:0E03B200D9CFE6FFE1CFD9FF0F0E95168316C7
:1003C000FE0EDB50F00B83128C948C9242EC00F00A
:1003D0008C8042EC00F08C900F0E8316FE0EDB3802
:1003E000F00BF00B831242EC00F08C8042EC00F03A
:0E03F0008C90F00E9512E552E7CFD9FF120067
:0203FE00D9CF55
:10040000E6FFE1CFD9FFFD0EDBCFE9FFFE0EDBCF2C
:10041000EAFFEF5015E068EC02F00009FCE1FD0E88
:10042000DBCFE9FFFE0EDBCFEAFFEF50E66EB3EC69
:1004300001F0E552FD0EDB2AFE0EE5E3DB2AE3D7F1
:08044000E552E7CFD9FF1200DD
:08044800D9CFE6FFE1CFD9FF97
:10045000E6528C848C8242EC00F08C8042EC00F0FE
:10046000F00E8314DF6E8C9042EC00F08C8042EC36
:1004700000F083380F0B0F0BDF128C908C928C9452
:0C048000DF50E552E552E7CFD9FF120033
:04048C00D9CFE6FFDF
:10049000E1CFD9FFE6528C848C9242EC00F08C8044
:1004A00042EC00F0F00E8314DF6E8C9042EC00F012
:1004B0008C8042EC00F083380F0B0F0BDF128C9016
:1004C0008C947F0EDF14E552E552E7CFD9FF12007E
:1004D0008C848C9242EC00F08C8042EC00F083AE75
:1004E00009D08C9042EC00F08C8042EC00F08C90B3
:1004F0008C94010C8C9042EC00F08C8042EC00F06B
:060500008C908C94000CAD
:0A050600FF0EE350036EEF0E01D06C
:10051000F30EE76EE72E8AEF02F00C0E026EE76A2A
:10052000E72E90EF02F0022E8FEF02F0032E88EFFD
:0405300002F01200C3
:0C053400540E856F410E866F500E876FCD
:100540004F0E886F550E896F540E8A6F210E8B6F78
:0E055000120000EE85F01251E926EF50120065
:02055E00FF0E8E
:10056000E350036E480E01D04C0EE76EE72EFED727
:0E057000E76AE72EFED7032EF7D70000120031
:02057E00000E6D
:10058000F36E00EE00F0060E01D81200EA6002D011
:0E059000EE6AFCD7F350E9601200EE6AFCD769
:02059E0000005B
:020000040030CA
:0100010022DC
:010003000EEE
:010006008178
:00000001FF
